S0130000DEA868B6A1AF62684342000000000000A9
S38508001000F03F0020D9110008DF1100089983000800000000000000000000000000000000000000000000000000000000FF110008000000000000000003120008819400080D12000800000000319300080D1200080D1200085D8300080D12000879830008000000000D1200080D1200080D120008F93B00080D1200080D1200080000000060
S38508001080999400080D1200080D1200080D1200080D1200080D1200080D1200080D1200080D1200080D1200080D1200081D9800080D1200080D12000800000000819A00085FF808F130B583B002F0DDFB304B314A1360314A1360314B314A01E002CA02C330498B42FAD32B4B1A682F4B9A4200D0FEE7294B1A682D4B9A42F9D1244B2C4AF8
S3850800110013602C4A13602C4B01E0002204C32B4A9342FAD3264B1B68002B03D1254B1B68002B00D0FEE702F0B2FB694601A802F09FFB234C234BE41AA410002504E0AA00204BD35898470135AC42F8DC1E4C1F4BE41AA410002504E0AA001C4BD35898470135AC42F8DC0099019807F085FA0500174C184BE41AA41004E0013CA200154BCB
S38508001180D3589847002CF8DC280002F048FBC046BABADECAC000002050020020C00000200CCA000854020020785634123254769858020020D82E002058020020DC2E002038120008381200083812000838120008381200083812000810B5FFF773FF00BEFEE704207146084202D0EFF3098001E0EFF308807146044A104700BEFEE700BEC0
S31508001200FEE700BEFEE77047FB11000800BEFEE7DA
S32D080012100CCA0008C0000020540200200CCA0008000000000000000058020020DC2E00200000000000000000F2
S3850800123830B587B0041E61D0314BC35C002B1ED02F4B0322E254206800F0ECFC0023606883421BD25A01A218110029310120087001390B70D38610002B30002101709163D1639A1C520111510133DBB2E7E78A239B000022C25401F01BF9D9E70022904216D95301E3181D002A35FF3500212970013D2A70033529700D3529603D33FF33F6
S385080012B8196013000A335B0119510132D2B2E6E76A462300103323CB23C203CB03C26168A268E368206800F0AFFC24230022E254074B0132E254E369012B02D0002007B030BD200000F077FC0020F8E70120F6E72902000070B504008A239B00C35C012B0DD08A25AD0001234355006800F01EFE206800F075FC00236355002070BD02206D
S38508001338FCE770B504008A239B00C35C012B0DD08A25AD0001234355006800F06BFC206800F0F2FD00236355002070BD0220FCE770B5041E0BD0074D03234355FFF7E1FF200001F0BBF800236355002070BD0120FCE7C0462902000070B504008A239B00C35C012B0CD08A25AD00012343552333C154006800F0D2FD00236355002070BDAB
S385080013B80220FCE770B5050048B2002827DB07240C40640120002930FF3028182C192A34FF34002626700724214001700261C3704278002A00D0C181022B1BD08A239B00EB5C012B19D08A24A40001232B550100286800F02FFC00232B55002070BD07240C4064012000283028182C19293401262670D8E700230371E0E70220EEE770B5FB
S3850800143804004BB2002B1FDB07230B405B011A002932FF328218C3182A33FF33002018700723194011708A239B00E35C012B16D08A25AD00012363551100206800F0CCFC00236355002070BD07230B405B011A0028328218C318293301201870E0E70220F1E770B507250D406C0121002931FF314118041926003D36FF3632602A000A321D
S385080014B85201135082180023536022002A32FF3213702934FF342570002D04D1006800F069FD002070BD006800F064FDF9E707230B400A335B01C3185868704770B507250D406C012100283141180419E263AA1C520113508218002353602300293301221A7028342570002D04D1006800F042FD002070BD006800F03DFDF9E7F0B5C646D1
S3850800153800B50500A0E00388CF4A1A40CF4B13439BB2038029685023CB5A2822AA5CD2009B185B18CA4A944663441B889B059B0D6B64EA6B94466344EB630021280000F0E7FF2423EB5C002B00D17DE02B6C002B00D079E02422AB5C802149420B43DBB2CC31286843520023AB546DE05023C35A94225200AA5CD2009B181B18B54A9446C4
S385080015B863441B889B059B0D2A002932FF32D3618C2189006918D28800F06CFD2A681388AD490B4080210B431380280000F098FF4AE03E2A06D85108D20700D501318902198098E05109D20600D10139890289B29E4A114319808EE0A300984640440688B6B233B2002B00DA91E033062CD52B6843441A001B8894491940944B0B439BB27E
S38508001638138028685023C35A610169180A0028321278D2009B181B188D4A944663441A889205920DA31C5B01E8184260C86B84466244CA635B59002B00D023E10C0028342178280000F064FF28684423C35A1BB2002B00DB1EE14423C35A9BB20F241C40BAD1DB0600D44EE703889BB21A0500D57CE71BB2002BE7DA0388774A1340802218
S385080016B81343038028685023C35A94225200AA5CD2009B181B186F4A944663441B889B059B0D2A002932FF32D361002B0FD0516900290CD01400D28800F0DCFC6369E2699446634463610021280000F014FF2B6850229A5A9B185F4A944663442A002932FF321269002A00D063E71A885B491140564A0A431A8029680A88594B1A40C023C2
S385080017389B015A40574B13439BB20B809CE70388514A13408022134303806301EB183533FF331B78002B1ED128685033C35A6201AA182932FF321278D2009B181B18454A944663441F88BF05BF0D33D06301EB181A002F32FF3212883D33FF3319683B0000F088FC26E028686301EB182933FF331B789A008218128852044BD55022825A5C
S385080017B8DB00D3181B18324A944663441F88BF05BF0D32D16301EB182933FF331A7892002B689C46624413882F4919402F4B0B439BB21380390020000A3040012A185368DB1953606301EB183D33FF331A68944667441F604359002B06D06201AA183932FF321268914243D26301EB182933FF331978280000F07FFEF7E66301EB181A00EB
S385080018383132FF3212883D33FF3319683B0000F031FCBFE75022825ADB00D3181B180D4A944663441F88BF05BF0DB3D06301EB181A003332FF3212883D33FF3319683B0000F018FCA6E7C0460F8FFFFF0080FFFF02040000060400008F0F0000FF83FFFF8FBFFFFF8080FFFF8F8FFFFFC080FFFF6201AA182932FF3211783A002800FFF7D6
S385080018B8F0FDB2E664012C19283421782800FFF715FED9E6002004BC9046F0BD70B50400006800F04DFB030400D57BE0206800F047FB430500D579E0206800F041FB430405D5216844228B5A584803408B52206800F036FB830405D5216844228B5A544803408B52206800F02BFBC30418D521684023CA5A04208243CA522168CA5A0430B0
S385080019388243CA5298239B00E35C012B5CD0200000F034FE216844228B5A464803408B52206800F00DFB030557D4206800F008FB030626D5216844228B5A802083438B5298239B00E35C002B62D121684033CA5A04200243CA522168CA5A08200243CA5298239B000122E25454232268D25A9208183B134099229200A3500121200000F0EA
S385080019B82DF9206800F0DCFA830545D4206800F0D7FAC30505D5216844228B5A264803408B5270BD2000FFF7A9FD7FE7216844228B5A224803408B52200000F0BBFD00212000FFF7C9FC77E798239B000022E2540021200000F002F999E721684023CA5A08200243CA5220684421425A144D2A4042522168CA5A04200243CA52206800F0EB
S38508001A389FFAC30400D590E7200000F0A5FD8CE7200000F0A1FDB4E7216844228B5A094803408B52200000F07EFDAFE7FFBFFFFFFFDFFFFFFFEFFFFFFFFEFFFFFFFBFFFFFFF7FFFFFFFDFFFF70B5040007250D4043689D4233D84BB2002B20DB4B0119002931FF314118C3182A33FF3300221A7001238B700D708A239B00E35C012B20D044
S38508001AB88A239B000122E254206800F0E9F9002D0ED08A239B000022E254002070BD6B01190028314118C318293301221A70DFE78C239B00E118206800F046FAE9E70120ECE70220EAE770B504000F230B40426893422FD84BB2002B21DB07230B405B011A002932FF328218C3182A33FF3300201870002393700733194011708A239B0025
S38508001B38E35C012B18D08A25AD00012363551100206800F0CBF900236355002070BD07230B405B011A0028328218C318293301201870DEE70120F1E70220EFE710B50C060AD507242140490128314018002A08D10273C380002010BD49012931FF314018F4E70122027303811B0C4381F2E702689B239B000121C1505823D15A01200143DD
S38508001BB8D152D15A04208143D152D15A04308143D152D15A02200143D1520020704701689B239B000022C25058328B5A012083438B520020704702689A239B000121C150083B0021C1545423D15A01200143D152D15A02200143D15200207047704700004022835A02490B439BB283520020704780BFFFFF4022835A02490B4083520020C3
S38508001C387047C0467F40000084B010B503910492059340220123835200238352043283520C328352FFF7DCFF002010BC08BC04B018470000F0B50D78AD0045192B885B4A1340CA78012A51D0002A46D0022A52D0032A46D00122564C23439BB22B800B789E00861935882DB2524F3D402B439BB21C43A4B234800B7B002B00D080E04B783E
S38508001CB8002B45D05023C45A04190B78DB001B198024E400A4466344CC88640864001C800B789B00C3181C88640606D51C883D002540414C2C43A4B21C80CB78012B1CD00B789B00C01803883C490B4020215940374B0B439BB2038052E08024A4002343B9E7C022D20013430022B4E78022D20013430022AFE70022ADE70B789B00C01894
S38508001D3803882E4919402A4B0B439BB2038037E05025445B04190B78DB001B19284CA4466344CC88640864001C80445B04190B78DB001B19234CA44663440C69002C21D11C88214D2540214C2C431C800B789B00C3181C88640406D51C88164D25401C4C2C43A4B21C800B789B00C0180188194B1940C0239B0159400D4B0B439BB20380E1
S38508001DB81000F0BD3E2C06D86508E40700D50135AD021D80DAE76509E40600D1013DAD02ADB20A4C25431D80D0E7C0468F89FFFF8080FFFF8F8FFFFFC080FFFFBF8FFFFF0404000006040000FF83FFFF0080FFFF80C0FFFF8FBFFFFF10B50B7B002B19D14B78002B18D00B789B00C3181A88520606D51A88144C1440144A224392B21A804C
S38508001E380B789B00C0180388114A1A40114B13439BB20380002010BD0B789B00C3181A88520406D51A88084C14400B4A224392B21A800B789B00C0180388084A1A40054B13439BB20380E5E78F8FFFFFC080FFFFBF8FFFFF8080FFFF80C0FFFF8FBFFFFF4B78002B0DD00B789B00C01803880C4A134010225A400B4B13439BB203800020CF
S38508001EB870470B789B00C0180288074B1A4080235B015A40034B13439BB20380EFE7C046BF8FFFFF8080FFFF8FBFFFFF10B50B7B002B1ED14B78002B1BD00B789B00C3181A88520606D51A880B4C14400B4A224392B21A80CB78012B0BD00B789B00C0180388074A134020225A40064B13439BB20380002010BDC0468F8FFFFFC080FFFF3A
S38508001F38BF8FFFFF8080FFFF40230122C252433200218152413AC25200207047002902D14C238022C2520020704700005822835A02490B439BB28352002070470080FFFF4423C05A80B270470020704710B501335B0810188022D20094466044002B08D00C784A7812022243028002300231013BF4E710BD70B505000C004B78012B28D0A8
S38508001FB88B690A69934250D99B1A8B61237B002B10D15033E95A69182378DB005B182E498C466344002A44D11A882C4911402C4A0A431A8023789B00ED182A88294B1A40C0239B015A40284B13439BB22B80002070BD8A690E69B24211D9921B8A61227B002A10D023789B00ED182B881F4A134030225A401C4B13439BB22B80E7E7002322
S385080020388B611600EBE7B6B2E288330061692800FFF79CFF5023EA5AAA182378DB009B18134A944663441E80DCE700228A611A00ACE73E2A06D85108D20700D5013189021980B7E75109D20600D10139890289B2034A11431980ADE706040000FF83FFFF0080FFFF8FBFFFFF8080FFFFBF8FFFFF0204000010B55C0810188022D2009446CE
S385080020B86044002C08D0028892B202300A70120A4A700231013CF4E7DB0701D503880B7010BD000010B5AE239B00C4580433C358002B0DD080229200A05CFF2808D09B68044AA25C2100984780239B00FF22E254002010BD010200004323038000487047C40000204323038000487047140100200A230380004870470801002070B5040038
S38508002138AE26B600855900F005FB83239B00E850A359002B0BD0AF239B00E358DB6883229200A918083AA8589847002070BD0220FCE770B504000D00AE239B00C6580833C158002E21D0AA0052199300C318D869002806D06B01C918896B08F043F9002907D007F01BFC85239B000022F250002070BDAA0052199300E3180022DA61002361
S385080021B82900200000F0B4FAF1E70220F0E70000F0B583B006000D00AE239B00C75800236A46D37101AA13800B7860241C402BD0202C5BD1CA88002A1DD05BB2002B0DDAAF239B00C3589B68487839009847EA883900300001F03EF800244AE04A7880239B00FA548A79244BFA54CA88390001F047F800243DE0AF239B00C3589B684878B0
S3850800223800229847002434E04F780A2F16D00B2F23D0002F03D000F06BFC022429E0A7239B00C35C032B03D000F062FC022420E0022201A901F00EF83C001AE0A7239B00C35C032B03D000F053FC022411E001226B46D91D00F0FEFF0BE0A7239B00C35C032B06D000F044FC022402E000F040FC0224200003B0F0BD0102000070B5040015
S385080022B8812100F0FCF90025E5620121200000F0F6F9B6235B00E5508221200000F0EFF92564AE239B00E358002B0BD0AF239B00E3585B689847AE25AD00605900F036FA00236351002070BD70B5040040230222812100F0C8F90125E562402302220121200000F0C0F9B6235B00E550653BFF3B03228221200000F0B6F925648720800027
S3850800233800F010FA0500AE239B00E050002814D00433E3581B689847002385229200AB500432AB5081239B00EA58C53BFF3B0121200000F0E6F9002070BD0120FCE7002904D0AF239B00C150002070470220FCE7AE239B00C358822080001950842189005A5000207047AE239B00C258B43BD1500020704710B5AE239B00C258002A16D017
S385080023B8A43BD358002B01D0012010BD85239B000121D150043BD1580163D35A8221890052588839FF3900F0A3F90020EDE70220EBE710B5AE239B00C358002B08D0812292009A584023012100F09BF9002010BD0220FCE70020704770B50500096807F0BBFA054C29002000FFF7BDFF2000FFF7E0FF002070BDC046082C002010B522285B
S3850800243801D0002010BD4B88DB0702D507F024FBF7E707F03FFBF4E710B5064C002206492000FFF795FF05492000FFF79CFF002010BDC046082C0020FC1C00201419002010B50A4CAE239B00E458A43BE358002B01D0012010BD054C0A0001002000FFF777FF2000FFF786FFF4E7C046082C0020012805D0002802D0022803D00220704782
S385080024B80220FCE70120FAE710B507F0F5F910BD82B00268074B9A4201D002B07047064AD169802000040143D161D36903400193019BF2E7005C0040001002400268054B9A4200D07047044AD36904490B40D361F8E7C046005C004000100240FFFF7FFF10B501009C239B00C058403B9C46614400F07EF910BD10B503009C2292008058DA
S385080025384A019B183D33FF331A6800F0A3F910BD10B503009C22920080584A019B18DA6B00F0EAF910BD10B59C239B00C05800F0A5FA10BD70B504008368022B09D19C25AD000121605900F07BFA605900F049FA70BD07F077FAF2E710B504009C239B00C05800F071FAA369002B04D0024A136906210B43136110BD00ED00E010B504005C
S385080025B88369002B05D19C239B00E05800F068FA10BD044A136906218B431361FFF774FFF1E7C04600ED00E070B504001E489C239B00C4505033E0501C4B036008234360063B8360036100238361C36101330362FEF716FE002823D1B025AD001823002200216059FFF7AAFA5823002280216059FFF7A4FAC023002281216059FFF79EFA2B
S3850800263888235B00002201216059FFF797FA605980235B0000228221FFF790FA002070BD07F010FAD8E7C046E4200020005C004010B5B0239B00C058FEF77AFEFFF718FF10BD10B5B0239B00C058FEF743FEFFF70FFF10BD10B5B0239B00C058FEF751FEFFF706FF10BD10B514001A00B0239B00C0582300FEF786FEFFF7FAFE10BD10B5EB
S385080026B8B0239B00C058FEF7BAFEFFF7F1FE10BD10B5B0239B00C058FFF7D6F9FFF7E8FE10BD10B5B0239B00C058FFF70CFAFFF7DFFE10BDB0239B00C3584AB2002A07DB7F220A4052019B182B33FF33187870477F220A4052019B182A331878F7E710B5B0239B00C058FEF737FEFFF7C1FE10BD10B5B024A4000059FEF7E0FEFFF7B8FEEE
S3850800273810BD10B5B024A4000059FEF7AAFEFFF7AFFE10BD10B5B0239B00C058FEF7C7FE10BD0000004870475C020020704710B5002816D0AD239B00C358002B03D0AD239B000024C450002902D0AC239B00C150A7239B000121C1540270FFF725FF002010BD0220FCE710B50400A7239B000122C2541833C3585B68017998472000FFF714
S385080027B869FF2000FFF754FF002010BD002904D0AD239B00C150002070470220FCE710B5FFF74FFF002010BD10B50400AD239B00C3585B68017998472000FFF74BFF002010BD10B5AD239B00C358002B06D01B689847002800D110BD0220FCE70220FAE710B5AD239B00C3585B689847002010BD70B50400AA239B00C518280000F064F999
S38508002838A5239B000122E250114BE25A163BE2501033E15C1F230B40012B0FD0002B07D0022B10D07F2399432000FFF731FF03E02900200000F0FEFA002070BD2900200000F02EFBF8E72900200000F05CFBF3E7AE02000070B505000C001100002C38D1A5239B00C358032B03D0052B28D020003DE002005532FF32D368126993420DD90D
S385080028B89B1A5530FF30C3609A4205D99AB2280000F007FD20002AE092B2F8E7AD239B00C3581B69002B04D0A7229200825C032A04D0280000F0FDFC200018E09847F8E7A5239B000022C2500021FFF7E1FE20000DE0AD239B00C3589B69002B08D0A7229200825C032A05D121009847002070BD0220FCE70220FAE7F8B505000C001100E6
S38508002938002C5BD1A5239B00C358022B0ED0042B01D0002B03D180212800FFF7B9FEA8239B00EB5C012B43D02000F8BD026A466AB24220D8C7693100380007F053FD002906D1BE4204D8A6239B00EB589F421ED3AD239B00EB58DB68002B04D0A7229200AA5C032A21D080212800FFF791FE280000F0ABFCD3E7921B026292B200F078FCCE
S385080029B80023002200212800FFF7BBFEC7E70022280000F06DFCA6239B000022EA50002300212800FFF7ADFEB9E728009847DAE7A8239B000022EA542000B6E7AD239B00C3585B69002B08D0A7229200825C032A05D1210098470020A7E70220A5E70220A3E770B50400402300220021FFF73BFE0125AC235B00E55040260C33E650253BFC
S38508002A38FF3B002280212000FFF72DFEA5616662A7239B00E5540023A5229200A35063601032A350AE239B00E358002B06D0AD239B00E3585B68002120009847002070BD0174002070470000A7239B00C15C034A81540422C25400207047C0469D020000A7239B00C35C042B01D000207047024BC25C013BC254F8E79D02000010B5A723B4
S38508002AB89B00C35C032B01D0002010BDAD239B00C358DB69002BF7D09847F5E7030000201A78002A03D00130C0B20133F8E7704710B54B88012B00D010BDA9239B000122C25000F0F6FBF7E70B7803704B7843708B78CA7812029B1843800B794A7912029B1883808B79CA7912029B18C380704710B504008021FFF7CBFD00212000FFF7E5
S38508002B38C7FD10BD30B583B005000C006B460022DA804A88130A072B00D991E09B005349CB589F46AC239B00C3581B68007C6A46911D98476B4606331B88002B03D0E288002A00D081E0E388002B00D189E003B030BDAD239B00C358DB6A6A46901D984702234370E6E7D2B2052A5DD89200404B9B589F46AC239B00C3585B68002B04D02D
S38508002BB8007C6A46911D9847D4E72100FFF7B0FFDDE7AC239B00C3589B68002B04D0007C6A46911D9847C5E72100FFF7A1FFCEE7AC239B00C358DB68002B04D0007C6A46911D9847B6E72100FFF792FFBFE7AC239B00C3581B69002B04D0007C6A46911D9847A7E72100FFF783FFB0E7AC239B00C3585B69002B04D0007C6A46911D98474E
S38508002C3898E72100FFF774FFA1E7AC239B00C3589B69002B04D0007C6A46911D984789E72100FFF765FF92E72100FFF761FF8EE72100FFF75DFF8AE72100FFF759FF86E721002800FFF754FF81E7191C934200D9111C8AB26B46D9800100280000F0FAFA71E7280000F025FB71E7C046D8B60008F8B6000870B504008B88002B23D1CB88E7
S38508002CB8002B20D14B887F2B1DD87F251D40A7239B00C35C032B0ED00D4BC5542900FFF71EFD200000F005FB002D07D0A7239B000222E2540AE0FFF71BFF07E0A7239B000122E25402E02000FFF712FF70BDC0469E02000070B504000D0089782A4B197001290FD8A7239B00C35C022B0ED0032B23D02900FFF7FCFE234B19782000FFF752
S38508002D386FFD02E02900FFF7F3FE70BD002911D04160A7239B000322C254FFF752FD022803D0200000F0C5FAEFE729002000FFF7DFFEEAE700F0BDFAE7E7002911D0436899421ED0D9B2FFF74BFD0F4B197861602000FFF736FD02280ED0200000F0A9FAD3E7A7239B000222C2544160FFF738FD200000F09EFAC8E729002000FFF7B8FE86
S38508002DB8C3E700F096FAC0E77C04002010B5CB88012B0DD1A7239B00C35C002B13D0022B09D9032B0FD1011D012200F053FA01E0FFF79EFE10BD0023836001000831012200F048FAF6E7FFF793FEF3E710B5A7239B00C35C013B022B14D8CB88022B0ED10123C360A9239B00C358002B01D00323C36001000C31022200F02CFA10BDFFF774
S38508002E3877FEFBE7FFF774FEF8E710B5A7239B00C35C013B022B0AD84B88012B00D010BDA9239B000022C25000F043FAF7E7FFF75FFEF4E710B50A7860231340202B06D0402B04D0002B09D0FFF752FE04E0AD239B00C3589B689847002010BD4B78092B18D89B000D4AD3589F46FFF74BFEF3E7FFF700FFF0E7FFF72DFFEDE7FFF786FF2B
S38508002EB8EAE7FFF7A3FFE7E7FFF712FEE4E7FFF7BCFFE1E7FFF72CFEDEE7C04610B7000870B505000C000A7860231340202B07D0402B05D0002B03D0FFF71AFE002070BDA7239B00EB5C013B022B17D82379012B0FD8AD239B00EB589B68210028009847E388002BEAD10028E8D1280000F0E1F9E4E721002800FFF7FBFDDFE72100280047
S38508002F38FFF7F6FDDAE770B505008B88DAB2087860240440202C08D0402C06D0002C0DD02800FFF7E5FD002406E0AD239B00EB589B68280098470024200070BD202C12D04E78012E3BD0002E63D0032E00D0DFE0A7239B00EB5C022B0DD0032B1CD02800FFF7C6FDE8E7AD239B00EB589B68280098470400E0E7002A01D0802A03D12800BB
S38508002FB8FFF7B6FDD8E711002800FFF781FB80212800FFF77DFBCFE74B88002B06D1002A04D0802A02D0CB88002B03D0280000F080F9C1E711002800FFF76AFBF6E7A7239B00EB5C022B05D0032B14D02800FFF78FFDB1E7002A01D0802A03D12800FFF787FDA9E711002800FFF752FB80212800FFF74EFBA0E74B88002B9DD1530603D1F0
S38508003038280000F056F997E711002800FFF749FBF6E7A7208000285C022806D0032829D02800FFF765FD340086E7002A01D0802A12D11B0615D47F2111408A00521891005131FF316918043100230B600222280000F000F934006FE72800FFF749FD34006AE77F2111408A0052189100103169180431E9E75BB2002B22DB0F2010408400AA
S385080030B82418A00028185930FF300068002825D0002B28DB7F2313409900C9188B005133FF33EB181C1D002A01D0802A24D10023236002222100280000F0CCF834003BE70F20104084002418A000281880690028DED12800FFF70CFD34002DE72800FFF707FD340028E77F2313409900C9188B001033EB181C1DD6E711002800FFF7DAFA74
S38508003138002802D001232360D3E700232360D0E72800FFF7EDFC0FE770B504000D001600002815D0FFF7BAFC013040003080287003236B70013B2178002909D001345A1CD2B2E9540233DBB2AA1800211170F2E770BD000012230B80004870476801002004230B80004870477C01002030B500230AE05D0037344C5500015C0001340C197E
S385080031B8002525700133DBB2934206D2040F092CEFD85D0030344C55EEE730BD10B50A00002805D105490648FFF7B6FF034810BD02490348FFF7B0FFF8E7C0465823002094B7000810B50A00034C21000348FFF7A3FF200010BDC0465823002070B7000810B50A00034C21000348FFF795FF200010BDC0465823002054B7000810B50A0091
S38508003238034C21000348FFF787FF200010BDC0465823002060B7000870B506F0F3FC05000800064CA11C0822FFF7A0FF2100123108222800FFF79AFF70BDC0468001002010B522230B80FFF7E7FF014810BDC0468001002010B51300A522920002248450C36103620A000021FFF742FA002010BD10B513000A000021FFF73AFA002010BDE0
S385080032B810B51300A522920003248450393AFF3A8350043283500A000021FFF732FA002010BD10B513000A000021FFF72AFA002010BD10B5A5239B000422C250002300220021FFF715FA002010BD10B5A5239B000522C250002300220021FFF712FA002010BD0000044B1B691B0604D5024B034A5A60034A5A607047002002402301674511
S38508003338AB89EFCD024A136980210B43136170470020024070B505000E009023DB05984212D03E4B98420FD03D4B98420CD03D4B984209D03C4B984206D03C4B984203D0AE213B4800F080FA3368002B07D03379032B09D8F379022B0BD8002445E0AF21334800F071FAF2E7B021314800F06CFAF0E7B1212E4800F067FAEEE7C1212C4893
S385080033B800F062FAAB68610003228A409343AB60AB6872798A401343AB60B379012B37D8AB882104090C01228A409343AB80A888B2798A4093B20343AB802A68610003231800884082432A602A683079884002432A60EA682004C00B83409A43EA60EB68F2798A401343EB6001340F2C15D80123A34032681A409342F6D13379013BDBB25A
S38508003438012BDAD87379012BBCD9032BBAD0B5E7C821074800F018FAC2E770BD0004004800080048000C00480010004800140048B0B70008044B036000230371012242718371C3717047C046FFFF000070B505000C0016009023DB05984213D0194B984210D0194B98420DD0184B98420AD0184B984207D0174B984204D081218900164869
S385080034B800F0E2F90F2C12D8072E15D8072323409B009E40E4082100083189004A590F20984082434A514B591E434E5170BD0B49094800F0C9F9E7E70949074800F0C4F9E4E7C0460004004800080048000C00480010004800140048B0B700080502000006020000014B024A1A60704700300040AAAA0000014B024A1A6070470030004098
S38508003538CCCC000070B504008378012B1FD86378032B21D8A378002B23D023789A081548C0329200155803211940C900FF231E008E40B5436678B60133408B402B43135023781F221A4001239340036070BD5221094800F079F9DAE75321074800F074F9D8E723781F221A4001239340014980228B50EBE700E100E0E4B7000870B504009A
S385080035B80D000E4B184201D1002803D10C490D4800F05AF9012D06D8002D09D00A4A53691C43546170BD0949064800F04DF9F3E7054A5369A3435361F4E7C046A8FF81FE5605000018B80008001002405705000070B504000D000E4B184201D1002803D10C490D4800F030F9012D06D8002D09D00A4A93691C43946170BD0949064800F07D
S3850800363823F9F3E7054A9369A3439361F4E7C0461EA5B8FF7D05000018B80008001002407E05000070B504000D000E4B184201D1002803D10C490D4800F006F9012D06D8002D09D00A4AD3691C43D46170BD0949064800F0F9F8F3E7054AD369A343D361F4E7C046CCB68185AB05000018B8000800100240AC05000070B505000C00052855
S385080036B812D80F2C15D8032323409B000F269E40A1080A4A023189008858B043885088589D4005438D5070BDFC21054800F0CCF8E7E7FD21024800F0C7F8E4E70000014048B8000870B504000D00384B98421DD08023DB05984219D0354B984216D0354B984213D0344B984210D0344B98420DD0334B98420AD0334B984207D0324B984247
S3850800373804D086214900314800F09EF86B88002B07D0102B05D0202B03D0402B01D0602B38D12B89002B07D080225200934203D00132FF32934233D123889BB21B4A944206D08022D205944202D0194A944203D1702293436A881343164A944204D01C4A13402A8913439BB223806B68E3622B8823850E4B9C4208D0114B9C4205D0114B2E
S385080037B89C4202D0104B9C4201D1AB7A23860123A38270BD0E21FF310C4800F055F8C0E787214900094800F04FF8C5E7002C0140000400400010004000140040002000400040014000440140004801407CB80008FFFCFFFF01235B424360002303800381438083727047FEE710B50120FFF7FBFF10B503000D4A1268002A0BD00B4A10682C
S38508003838033303229343C318094A934206D8074A136010BD054A07491160EFE707F01CF80C23036001204042F3E7C04680040020F03B0020DC2E002001230360014B0B607047C046A401002010B5FFF7CDFF10B503F012FB10BD10B503F03AFB10BD000070B50400144E3368144A012103F051FA134DFA22920000232868696806F0A2FEA1
S385080038B80300104A0121200003F043FA326800232868696806F096FE03000B4A0121200003F037FA094B1B68094A0121200003F030FA002070BDC046BC230020C4B80008A8230020D8B80008ECB80008B023002000B9000870B582B003F098F9051E0DD00024042C1ED8E300104A9958280007F041F8002804D00134E4B2F2E7012012E0AD
S38508003938102101A803F09AF9002805D06600084B019A9A53002006E06600054B01225242F252F7E7012002B070BDC04644B9000888040020044B9A6904490A409A615A6901218A435A61704700100240FFFDFFFF0A4A13680A490B4013600A4A936802210B439360084BD968802292000A43DA60DA6806490A40DA607047C046082701409F
S385080039B8FFFFBFFF0024014000100240FFFDFFFF064B9969802292000A439A615A6901210A435A61024B00221A7070470010024092040020094B1B78002B0DD1074B01221A70074B5A6A074B1A60074A936804210B439360012000E0002070479204002000200040B82300200024014010B5FFF7E1FF0028FBD0024B1B78002BFBD110BD9D
S38508003A389204002010B50A22FF21224806F054FFFFF7BEFF204A916880231B060B43936000231D4A9268002A03DA0133DBB2632BF7D91A4B1A4A9A601A4ADA6005225A60194A1A60144B0122DA60184908688022D20302430A60012252421A605A6808210A435A600023042B0AD80B48826ADC000F49091949680A4382620133DBB2F2E787
S38508003AB8054B06225A619A6801210A439A60FFF7ADFF10BD8804002000240140080002404024014094040020A10500000827014044B9000810B50100014803F0AFF810BD14B9000843000148C0187047940400204200064BD35A064A934201D0180070474000044BC35A9BB2F8E7C04688040020FFFF00009404002070B582B00500FFF76B
S38508003B3875FF00240AE00F4B0193009033000E4A0121280003F0FDF80134E4B2042C0DD8E3000A4A9E582000FFF7D2FF6300084A9A5A084B9A42E6D0074BE5E7002002B070BDC04668C60008B4B8000844B9000888040020FFFF0000ACB80008F8B50F00164B1C88FFF7B4FF05000420FFF7B0FF061E00D12600220000233800002106F0F1
S38508003BB841FD02000B002800002106F03BFD830F8D001D43840000196941001849413203921BD31706F00EFD05220023801859410A22002306F006FD80B2F8BDBAF7FF1F10B582B0184B1A680192019A1A60019B1B0724D5154B5B6A154A12689A4220D99B1A802252029446634412490A6801320A6018000021104C2268636812184B41CA
S38508003C38226063600D4B1A685B68994204D1904202D90A4B18605960094B00221A7002B010BD9B1AE1E7C0460024014000200040B8230020BC230020A8230020B02300209204002010B58AB00C00064901A806F0B5FE01A9200006F08DFE43425841C0B20AB010BDA4B9000870B50500012102F0F1FB05F039FC06F027FE002407E0303097
S38508003CB86A0152190D4B9B1818550134E4B21F2C08D806F03DFE0F2318400928EFD9573040B2EDE76A015219044B9B18044A0121280003F02EF8002070BDC046A004002094B9000810B5040002F0A0FF002805D001002000FFF7B6FF002805D10021200002F0B8FB012010BD0221200002F0B2FB0020F8E710B5002102F0ACFB002010BD02
S38508003D3870B5184B984221D8002070BD5D1E164CAD002A5B891A89B29B00E3189B786419A4781B1BDBB2C0B2D2B2801AC0B25843830018184300180006F058FB05300A2106F054FBC0B22018C0B2DEE701230F2B06D89A000449515A8142D7D80133F6E76420D2E7AC0D0000A4BA000870B50B8883421FD3002070BD144A944663449B0006
S38508003DB8CB181E88AD1BA9B2A2785C88E3B2D31ADBB2C0B2F6B2801BC0B25843830018184300180006F022FB05300A2106F01EFB2018E0E70123934206D29C000C1925888542D9D80133F6E7C820D4E7FFFFFF3FF0B5D646474680B583B005000124052C49D863001B199A00264BD35AAB4201D80134F4E7601E234A904642001718BE0005
S38508003E384746F75BDB1B9BB29A468EB211188B00434459681218930043449A6801963000FFF7A4FF0600630019198A004244516892680198FFF79AFF864217D9F3B2C1B2591AC9B2EAB2FBB2D31ADBB2864200D206004B439A00D3185800514606F0C6FA05300A2106F0C2FA301A05E0C3B2F1B2591AC9B2E6E7C820281803B00CBC90462C
S38508003EB89A46F0BD5CBA000810B5064B1B88002B03D0122004F003F910BD122004F009F9FAE7C046E604002010B5040001F0F4FD002806D001F0F6FD002802D0084B9C420AD901F0E9FD002802D0064B9C4202D9002005F001FF10BD002005F0F1FEFAE7AB0D00003B0F000010B584B0264B1B78002B03D0012B3BD004B010BD03A902A8CA
S38508003F3803F0E8FA029B039A944663441C0002F06FF8002827D1029BC82B06D8039BC82B03D8A5235B009C421DD98020800304F08BFF039B0093029B144A0121FF2002F0E8FE114B01221A70114B2C32FF321A8005F078FE05F09FFE0E4B1B78022BCBD0FFF728FDC8E78020800304F07FFFF3E7074A1388591E1180002BBDD105F07EFE89
S38508003FB8014B00221A70B7E7E204002024BA0008E4040020AC01002010B502490220FFF7DDFD10BDC819000010B501F075FD002804D1044B5888FFF777FF10BDFFF7ECFFF9E7C046AC01002010B50122824003490B8813430B80FFF757FF10BDE604002010B50122824003490B8893430B80FFF74BFF10BDE6040020014B58787047C046EC
S38508004038AC01002030B583B0FFF7CEFFFFF76CFF4A4B1B78022B1DD0032B2DD0012B01D003B030BD0120FFF7CFFF012001F09AF9042003F00FFA414C1423A380123B23700023237303F0C6F8A0608020400304F0FBFEE5E7394B9B88002B03D0013B374A9380DDE7FFF7A6FC0028D9D0334B02229A8001321A70D3E7304B9B88002B03D0FF
S385080040B8013B2E4A9380CBE7FFF786FF05002B4C608003F039FA01002800FFF799FE80B2FFF72EFE60706288A3689A4212D2234A137B0133DBB21373022B03D8130002221A70ADE701F0E8FC002806D1043004F0DFFE02E0042004F0E5FE0120FFF780FF042003F0DDF9012001F05CF98020400304F0BCFE114B04221A7010329A809B7929
S38508004138002B15D10D4BDC79032C00D188E71D005B886A7800920A4A0121200002F0F9FD084A0121200002F0F4FD0323EB7177E7024B587804F0BCF9E4E7C046AC010020E4BA0008ECBA0008084B1B78002B07D0042B05D0002807D0044B01229A7103E0024B01221A7098717047C046AC010020034B1878043843425841C0B27047C0468C
S385080041B8AC01002010B5182003F089FFFFF72EFC04490320FFF7E2FC0400182003F089FF200010BDE40C000010B50400FFF7EAFF0300034A0121200002F0ABFD002010BD20BA000810B50400064BDB79032B01D0012010BD0020FFF7B7FF024BDC710220F7E7C046AC010020014B01221A70704758050020014B00221A70704758050020AC
S38508004238002906D034235843054B1B1801225A727047342343430248C01801230374F7E7EC040020002301E00133DBB2012B11D834215943094A5218907C00280BD034215943064A5218127B632A05D9FF2AEBD1002000E0012070470020FCE7EC04002010B5041E04D0FFF7BFFF034B1C6010BDFFF7C0FFFBE7C046540500203423434353
S385080042B80248C0180123C37383747047EC040020342343430348C018038B01330383012383747047EC040020094BDB7C032B01D000207047064A4433D35C032B01D00020F7E71300D074472298540120F1E7C046EC040020024B0322DA7447215A547047EC04002030B583B0040034206043134B1B18DD7C5B8C934211D0114B1B57114A85
S385080043380092114A0121280002F003FD342044430A48001901234372837403B030BD34206043030020330548C018043006F09AFA0028E2D1024B1B57044AE1E7EC04002008C30008F0BC0008F8BC0008ECBA000810B50400064B1B56064A0121FF2002F0D8FC34204443044800190123437410BD08C3000818BB0008EC04002010B50400E6
S385080043B8074B1B56074A0121FF2002F0C2FC3420444305480019012303740023837410BD08C3000850BC0008EC04002010B50400074B1B56074A0121FF2002F0AAFC342044430548001901230374837410BDC04608C3000840BC0008EC04002030B585B00500342444430C480019C07C032808D1342045430848401901234372837405B0C0
S3850800443830BD064C64570293019200912300044A012102F07EFCEBE7EC04002008C30008BCBC0008F0B5C64600B582B006000F0090461C0008AB1D78342242430E4B9B18D87C03280FD1342373430B48C0180123437287724246C27204734573837402B004BC9046F0BD054B9B570094044A012102F04FFCE7E7C046EC04002008C30008C7
S385080044B8DCBC000810B58020800004F0EFFC10BD70B504000D1E0DD0342343430A4A9B5C002B0CD0084B34206043C5541B1800225A8070BD054B185C04F0D8FCF2E7034B185C04F0C1FCEDE7EC040020E0BB000810B5074A34234343D11801240C719B5C002B00D010BD0121FFF7D2FFFAE7C046EC04002010B50400342242431C4B9B18EC
S38508004538D87C002901D103281AD1194A34236343D318002119710331D9741379002B16D13833D35C002B12D1537A002B03D13D33D35C002B0BD003212000FFF7A9FF0AE00C4B1B570C4A013102F0E3FBDDE701212000FFF79DFF094B1B78002B06D1FFF761FE002802D0064B064A1A6010BDC046EC04002008C3000828BC00085E05002065
S385080045B8540500208051010010B50400342242430C4B9B18D87C00290CD034226243094B9B1800225A710332DA7401212000FFF76FFF10BD044B1B57044A013102F0A9FBEBE7C046EC04002008C3000828BC000870B582B00400342242431E4B9B18DD7C002914D0342262431A4B9B18588B002815D101212000FFF74BFF34236343154C24
S38508004638E4180323E3740023E37102B070BD124B1B56124A0131280002F07BFBE2E70E4B1E57342262430B4B9B185A8C4243C82050430B4A1168DA69891A1B8B019305F04BFE00903300074A0121280002F061FBCFE7C046EC04002008C30008E4BB0008740C0020FCBB000870B5074A34234343D41801256571A1739B5C002B00D070BDCD
S385080046B80121FFF705FFFAE7EC04002010B5074A34234343D11801240C729B5C002B00D010BD0121FFF7F4FEFAE7C046EC04002070B582B005001E4A012102F02AFB00240EE01C48342251431B4A5218127B019200901A4A0121280002F01BFB0134E4B2012C0BD82100164B1B573426664312488019827C002AE4D01248E3E7124A012153
S38508004738280001F0ADFE114B1B78002B09D0104B1B88104A0121280002F0FBFA002002B070BD0D4A0121280001F09AFEF6E7C04654BB00084CBB0008EC04002070BB000808C3000850BB000868C600085E0500206005002080BB000894BB000810B5012002F030FD022004F093FB00210020FFF78FFE00210120FFF78BFEFFF73BFD10BD57
S385080047B810B582B0104B1B78002B03D00124200002B010BD6B46D81D02F060FA002810D06B46D879094A34234343D11801248C719C5C002C01D00024E9E70121FFF768FEE5E70124E3E7C046E9040020EC040020F0B587B004000F2002AB9C46604402F03DFA002800D182E00F2302AA944663441D7834226A433F4B9B18DB7C032B01D000
S38508004838012075E034226A433A4B9B180D225A8400225A83203301321A700A2104A802F00DFA002811D1334A34235D4353190121D97131490968D96100211983D982DC74AB5C002B4AD0002052E034226A43294B9B18049A5A830A2104A802F0EFF90028E1D0049BDAB2234834236B43C1184A842033C01804300D2202ABD91D02F010FA36
S385080048B80028D0D034226A431A4B9B181A0020320021117002AA0732127891B25E8CB14216D2019204920FE00199380005F084FE34226A430F4B9B18591824310A78DB1924331A7001370497049FBE42ECDCAAE734226A43074B9B185984A4E70F3302AA9446634418780131FFF7D2FDABE7012007B0F0BDEC040020740C0020014B012211
S385080049381A707047E8040020014B00221A707047E804002010B5102004F096FA014B01221A7010BDBC01002010B50C4B00221A7002F07EFD002807D1FFF756FCFFF7EAFF0020FFF701FC10BD054B01221A70054801F04AF801F0A6FBEEE7C0465C0500205B05002024BB000810B50D4BFF2119730322DA7440201954B8395A5402F00CFC1D
S385080049B8084B186002F018FC002806D0064B01221A70022004F07CFA10BDFFF7C5FFFBE7EC040020540500205C05002070B50600050034224243164B9B1820331B78002B19D034224243124B9B18DB8A002B01D000240EE00F4805F077FFF9E705F098FF34226A430A4B9B181B19243318700134E4B20C2CF2D9064B342272431100203156
S38508004A38591804319B185A8C300000F0C5FF70BDEC040020D204000010B534224243044B9B1800229A710121FFF732FD10BDC046EC04002010B5094B1B78002B00D010BDFFF782FB064B1B78002BF8D00020FFF73FFD0120FFF73CFDF1E7C046E90400205B05002010B5254A136801331360244A1268002A02D0013A21490A60214A1278B8
S38508004AB8002A08D0204A128820498A4206D801321D490A8002E01C4A002111801C4A1278002A0DD01B4A1278002A09D11A4A1278002A01D11E2B04D8114B1B68002B07D010BD154B01321A70022004F0F5F9F3E70020FFF7AFFF0B4B1B78002B04D00A4B1A880A4B9A4204D802F056FBFFF7B8FBE6E702F059FBFFF7B3FBE1E764050020F4
S38508004B38540500205E050020600500205702000058050020E80400206905002010B50120FFF788FF002010BD084B1B78002B06D1064A3433D35C002B06D0002000E00020034B01221A7070470120F9E7EC040020E9040020014B00221A707047E9040020F0B5C64600B586B0C44B5A8801325A80DA8E0132DA86C24B1B78002B01D10024DD
S38508004BB864E1BF4B00221A70102003F09CFABD4C207000F081FFBC4B18702378002B1ED0BA4B1B78002B25D1B94B1B78002B0DD08020000204F048F9B64B1A88B64B9A4208D802F0E9FAFFF74BFB13E00120FFF731FFF1E702F0E8FAFFF742FB0AE0AC4B1B78002B37D1A94B1B78002B3BD1A94B00221A80A44B1B78002B48D0A74B1B7857
S38508004C38002B3CD0A64B1B78002B4ED19D4B1A789E4B1A709C4B1A78A04B1A70984B1B78002B5CD09A4B1B78002B0BD0954B1B78002B07D09B4A13780133DBB21370192B00D95AE28D4B1B780A2B00D16AE206B004BC9046F0BD934B00221A708020000204F004F9BFE702F097FAFFF7F9FA884B1B78002BBBD10120FFF766FAB7E78A4A56
S38508004CB80121FF2001F0ECFB00F052FCBAE7834B1B78002BB6D0854A0121FF2001F0E0FB04F0A7FF00F04EFCACE7764B1C78764B1D78FFF7A1F90022092383425241D2B22900200000F0E2FD002803D16C4B01221A709BE78020800004F0B6F896E7102004F0C4F89EE734226243644B9B181B7A002B2BD134226243604B9B181B79002BED
S38508004D3834D1342262435D4B9B185B79002B3FD134226243594B9B189B79002B49D134226243564B9B18DB79002B4DD034226243524B9B1800225A722000FFF737FE00287AD007212000FFF7A3FB75E0200000F0EDFD002870D034226243484B9B1800225A7208212000FFF793FB65E034226243424B9B1800225A72FF321A73200000F02C
S38508004DB8E9FD002858D002212000FFF781FB53E034226243394B9B1800225A72997B200000F0E8FD002847D009212000FFF770FB42E00121200000F001FE00283CD004212000FFF765FB37E000212000FFF760FB32E034226243294B9B18DB7B002B11D134226243254B9B185B7C002B18D134226243224B9B181B7C002B1DD02000FFF7F1
S38508004E380BFE19E0342262431C4B9B1800225A72FF2119731A75FA392000FFF739FB0BE001212000FFF734FB06E034226243134B9B185B88642B17D834235D430F4B5B190022DA735A741A740134E4B2012C00D9E8E6250034236343084A9A5C092AEBD89200134B9B589F46200000F073FD0028E2D006212000FFF70BFBDDE7EC040020C2
S38508004EB8BC0100205E0500205A0500205D0500205C0500206005002057020000590500205B0500206805002064BC000878BC0008F0BA000834226243AF4B9B185B7A002B13D134226243AC4B9B181B7C002B15D01300A94AD218137D0133DBB21375022B07D92000FFF798FDA6E72000FFF794FDA2E705212000FFF7CBFA9DE73422624375
S38508004F389D4B9B185B7C002B96D005212000FFF7BFFA91E734226243974B9B185B7A002B13D134226243944B9B181B7C002B11D134226243904B9B185B7C002B00D17BE701212000FFF7A4FA76E701212000FFF7D1FA71E700212000FFF7CCFA6CE734226243854B9B185B7A002B13D134226243814B9B181B7C002B11D1342262437E4BF6
S38508004FB89B185B7C002B00D156E701212000FFF77FFA51E701212000FFF7F6FA4CE700212000FFF7F1FA47E7FFF7E2F8002800D142E7FFF721F80600704B1F78704B1B78984600F06FFD020000230921B1425B41DBB269494120085C0490487B03904020085C0290097B019100964146380000F067FC002800D11FE78020800003F024FF1E
S3850800503801212000FFF744FA16E7342262435A4B9B185B7A002B1FD01300574AD218D38A01339BB2D382528B934204D301212000FFF7CEFA00E7342262434F4B9B1800225A722000FFF7B2FC002800D0F4E601212000FFF71DFAEFE634226243464B9B181B7C002B10D034226243434B9B185B8B002B04D001212000FFF70AFADCE60021E3
S385080050B82000FFF7A5FAD7E6342262433A4B9B185B7C002B00D1CFE601212000FFF7F8F9CAE634226243344B9B18D87C5B7A002B13D134226243304B9B181B7C002B17D1342262432C4B9B185B7C002B00D1B3E601212000FFF7DCF9AEE62A4B1B572A4A012101F016FE0A212000FFF7D1F9A3E60A212000FFF7CCF99EE6244A0121FF20AB
S3850800513801F007FE002002F05DF8022003F0CAFE1F4B00221A70FFF707FC8020000203F0A5FE8FE5144A2A33D35C0A2B00D08EE51300D07C00221A723C215A545B7A002B04D00D4A3D23D35C002B0ED1114A012101F086F901210020FFF79AF901210120FFF796F9FFF7B6F871E50B4A3B3901F077F9FFF7F3FAF5E7EC0400205E050020C0
S385080051B85A05002008C3000890BC0008A4BC00085D050020F0BC0008ECBA000810B582B004001B4B1B78002B02D1012002B010BD6B46D81C01F052FD00281DD00A2101A801F03CFD002815D06B46D87834224243104B9B18DB7C032B01D00120E6E7342242430C4B9B18DC74019BD9B2FFF73CFA0020DBE70120D9E72000FFF755F80028DC
S3850800523801D10120D2E70020FFF714FC0020CDE75B050020EC04002010B5054B1B78002B01D1012010BD0100024801F0F7FCF9E75B050020A4BB000810B5044B1B78002B01D1012010BDFFF7C3FAFBE75B05002010B5144B1B78002B20D1134B1B78002B18D0124B9B7C002B1AD0104A4623D35C002B01D1012012E0FFF716F8002801D122
S385080052B801200CE00020FFF701FA0120FFF7FEF9022004E0FFF762FA002000E0012010BD0120FCE75E0500205B050020EC04002010B50400102002F006FF0300034A0121200001F026FD002010BDC0467CBB0008034B1B680A209842804140427047C046740C002010B50020002301E00133DBB2042B07D8084A12781A41D207F6D5074ABE
S38508005338D05CF3E7064B1B78834200D110BD044B187000F07FFBF9E7710500205CBD00087005002010B500F0B9FF040003000B4A0121FF2001F0EDFC012C03D0084B02221A7010BD04F0DEFB002803D0044B01221A70F6E7024B00221A70F2E74CBD00087205002010B5012808D0012282400B490B7813430B70FFF7B5FF10BD084B012220
S385080053B81A7000F089FB0028F7D0FFF7A1FF0028F3D0032000F04CFBEFE7C046710500206A05002010B5012808D00122824006490B7893430B70FFF795FF10BD034B00221A70FFF78FFFF8E7710500206A05002010B5FEF7D7FE1E4B1C781E4B01221A70632809D91C4BC3189BB21C4A934212D9184B00221A700324194B1B78002B14D1F6
S38508005438200000F015FB134B1B78002B1BD00420FFF7C8FF10BD134B9C46604480B2B823FF339842E8D80024E6E700F035FB0028E6D000F037FB0028E2D0FFF749FF0028DED00324DCE70420FFF78CFFE2E7C04672050020BD010020D2FBFFFF0A0500006A05002080F8FFFF10B52E4B1B78052B17D89B002C4AD3589F468020C00103F03E
S385080054B8E3FC0020FEF7A0FD284B00221A70FFF79FFF0020FFF766FF224BC8225A80C53A1A7010BD0020FFF77DFF0220FFF77AFF0320FFF777FF1B4B00221A7000F060FE8020C00103F0D2FC0020FEF789FDE8E7144B5B88002B03D1124B05221A70E0E704F010FB0028F7D10E4A5388013B5380D7E700F0D1FA0028D3D0FFF713FF094B9B
S3850800553804221A70CDE7074B5B88002B03D0013B044A5380C5E7FFF75BFF024BC8225A80BFE7C0466C05002028BD00087205002010B5034B01221A7004F055FB10BDC0466C050020014B02221A7070476C050020024B1878012358407047C046BD01002010B5FFF781FF10BD00B583B00A2101A801F064FB00281FD0019B002B15D00A2143
S385080055B8684601F05BFB002808D10220FFF7EAFE0320FFF707FF002003B000BD009BD8B2094B187000F044FAEFE70220FFF7FAFE0320FFF7D7FEEEE70220FFF7F3FE0320FFF7F0FEE7E7C0467205002070B582B0040000F061FA050000F064FA060000F055FA019000962B00034A0121200001F090FB002002B070BD40BD000810B54300C6
S385080056381B18074A9B5C002B05D043001B18D0183223437010BD034B1B689B689847F9E7740500207C05002010B5024B1B68DB68984710BD7C05002010B50400044B1B681B69984760000019024B0022C25410BD7C0500207405002010B50400044B1B685B69984760000019024B0022C25410BD7C0500207405002010B50400044B1B6863
S385080056B89B69984760000019024B0022C25410BD7C0500207405002010B5024B1B68DB69984710BD7C050020F0B587B015000CAA14880DAA1678122C3BD8090170220A400F210840024301A90A70002B01D0002C0CD1032D11D0AF1E7B1E9F417B00DB19154A9B5C002B0FD0002023E0220019006B46581D05F0C4F8EBE70134A2B201A951
S38508005738280004F0FFFC15E00134A2B201A9280004F0F8FC00280DD0002E0BD0064B7A00D7190122FA54DF190023BB707B70300000E0002007B0F0BD7405002010B5040043001B181C4A9B5C002B34D042001218194B9B185B78002B2DD0013BDBB21100154A52185370002B25D1134B5B189B78042B19D8114B185C0022002104F0C2FC63
S385080057B8002809D063001B190B4CE41832236370A3780133A3700EE063001B19064CE41863780133637006E043001B18024A00219954FFF741FF10BD7405002058C80008F0B583B006000C0015001F00D3B20A002B49FF2000F076FF002F10D0227813115B0707D10F231340042B34D0062B3BD0012B06D073009E19224B0022F25403B06B
S38508005838F0BD61784BB2002B0EDB1F4B1B681D684A08A4787F232340012002400140E40900943000A847E5E74B06E3D1072DE1D9154B1B685D68A179E0790002A378E27812029B18227912049B186279091889B23000A847CEE70C4B1B681B6A013DAAB2611C30009847C5E76378022BC2D1064B1B685B6AA2780121114030009847B9E7FA
S385080058B864BD0008740500207C05002000B585B0930004221A4040B2024352B24800022101400A430F236B441A700022019201320092023200210020FFF7F6FE05B000BDF0B587B003900CAC25780DAC24780EAE3678B4460FAE377810AE36789800042303406846007B40B203435BB2480002210140194305AB19707F210D40D2011543FA
S385080059385D700C40FF0127439F7062461140F6010E43DE700022019204320092013A00210020FFF7C1FE07B0F0BD000000B585B00F236B4402221A70054A125C01210191009100210520FFF7AFFE05B000BDC04658C8000800B583B0054B1A5C012301930023009300210320FFF79EFE03B000BD58C8000800B585B00F236B441970054A7D
S385080059B8125C01210191009100210320FFF78CFE05B000BD58C8000800B583B00B001100054A125C01200190009100210330FFF77BFE03B000BDC04658C8000800B585B00F236B441970064A125C002101910131009100210220FFF767FE05B000BDC04658C800080020704710B5034B1860034804F03AFC10BDC0467C05002070BD0008A5
S38508005A3810B50020FFF79AFE0120FFF797FE10BD7047000010B5002803D0044802F03FFB10BD024802F045FBFAE7C0461580000010B5154B1B78834209D0134B187001280DD0002804D0022810D0032815D010BD212002F02EFB202002F02BFBF7E7212002F027FB202002F01AFBF0E7212002F016FB202002F01DFBE9E7212002F00FFB7B
S38508005AB8202002F00CFBE2E780050020014B18787047C0468005002010B53D2002F013FB10BD000010B5024802F00DFB10BDC04622800000002300228380C3800381C27283818382C27582728275C82252000283C3614383704730B58288C3889A4235D2642A23D003681B889BB2817A002920D01BB20C21445E1D00018B8B4201DDA1425E
S38508005B3803DA8D420CDAA1420ADC01898024A400A1421DD84900046962520289013202818288013282808381012010E001238375D8E7028B934204D900230381012282728381838A01338382012000E0002030BD0020FCE710B502000121FF2000F080FC10BD0000F0B5DE4657464E464546E0B585B082460291150000930EAB1B889B46D8
S38508005BB80F9B99460023019303930024802712E0338800935B465B1B5A425A4103926B1C9BB29B4619E08027002828D1019B013301930135ADB2029B9D424CD2A8466E0056443088009BC01A04F042FE05300A2104F082FB80B20928DAD030882B4E464476005346F35AC01A04F032FE05300A2104F072FB80B2002FD5D00027D4E7AB45AF
S38508005C3802D0039B002B03D0013880B20023039308280FD800214E4688421AD9802C0DD0E208B21813785B083B4313700134A4B20131F1E71648FFF78DFF02E01548FFF789FF200005B03CBC90469946A246AB46F0BDB146ADE7002F02D0002148460AE08021484607E0E208821813785B080B4313700134A4B27F2CF5D9019B002BE0D064
S38508005CB8054A0121FF2001F044F8DAE7FFFFFF7F8CBD0008A0BD0008BCBD000810B5034B02221A7003F0CEFF10BDC046BE01002010B5034B01221A7003F0A8FF10BDC046BE01002010B5034B00221A7003F0B0FF10BDC046BE010020014B18607047C0468805002070B505000E001400102A00D970BDD200114B1A802200114804F0C0FD2D
S38508005D38033D6B1E9D410F4B1D7000230E4A13600E4A13600E4A13600E4A13700E4B01221A700E48FFF7C6FE0D48FFF7C3FE0D4B1B685B68E1B230009847D9E78E050020980500208D050020A80500208405002094050020900500208C050020C02B0020E02B00208805002030B583B005000C0010220021200004F09FFD286943882989FA
S38508005DB8019402220092FFF7EDFE03B030BD10B584B004006946FFF7E7FF684604F0BFF80130C3B2E375D800C0180F308300C0184300E3800023A3756B46187804B010BD064B9B7D002B05D1054B9B7D002B03D0012000E0012070470020FCE7C02B0020E02B002010B5084B9B7D002B04D1074B9B7D002B04D110BD0348FFF7C8FFF6E797
S38508005E380248FFF7C4FFF6E7C02B0020E02B002070B56A4B1A68501C1860694B1C78032C04D00A2104F0DEFA002906D1022C21D0032C00D196E0012C00D070BD614B1B780A2B11D007D90F2B11D0132B07D15C4B02221A7003E0002B01D1FFF71FFF594A137801331370E8E7FFF722FFF7E7FFF729FFF4E7544B186804281DD9534B1A68D3
S38508005EB813889BB2002B08D01288504BD9698C466244DA615A8B01325A834D4B1A6813889BB2002B08D01288494BD9698C466244DA615A8B01325A83464B1B88464A1468A3420BD0092104F08DFA002934D1434B1B78012B2DD0FFF7EBFE3BE03B4D698BE86904F0F9F93E4B1E6873891B182B83374C618BE06904F0EFF973891B18238316
S38508005F38FFF7D6FE344A136801331360354BEB80E380354B1B78002B03D0294B03221A708BE7274B00221A702D4B1B681B68984783E7FFF7C7FE0DE0E3082C4AD35C072214402341DB070AD5FFF7B2FE224A1368013313601C4A1368013313606DE7FFF7B1FEF3E71A48FFF7B6FD04001748FFF7B2FD1B4B19680B899A009B185A0092B2B6
S38508005FB8002804D0114B9B8A934200D855E7002C04D00F4B9B8A934200D84EE70C4A1389581E8341D372094A1389581E8341D372034B00221A700B6898473EE7940500208C0500209005002084050020C02B0020E02B00208E050020A8050020BE01002088050020360600008D05002098050020064B1B78002B05D1054B1B78002B03D0C9
S38508006038012000E0012070470020FCE7AC0500208C05002010B502000B000749FF2000F051FB042002F010FF022001F013FA03F01BFE03F03DFA10BDCCBD000810B503F03FFA042002F012FF022001F029FA03F010FE064BDB7A002B03D1054BDB7A002B02D0044B01221A7010BDC046C02B0020E02B0020AC05002010B501F021FA054B99
S385080060B81860054A1A6101F020FA044B1860044A1A6110BDC02B0020C0230020E02B0020C027002010B503F0EEFD01F099F8074B984207D00648FFF70FFEFFF7DDFF01F0D7F910BD024B37225A81F3E7B9E23301C001002010B584B0164B1B78002B0AD0144B00221A70144BDB7A002B09D1134BDB7A002B10D1FFF763FE002817D104B0FC
S3850800613810BD0D4C69462000FFF72EFEE27D6946002004F06FF8EAE7084C69462000FFF723FEE27D6946012004F064F8E3E7FFF759FEE4E7AC050020C02B0020E02B0020054B1B88002B04D0013B034A1380002000E001207047C046AE050020024B1870024B19807047C046B0050020AE05002010B503F0D3FC00210120FFF7EFFF10BD6D
S385080061B810B503F0D9FC00210020FFF7E7FF10BD10B53F4B1A78082A0AD893003D4AD3589F463D4B00221A703C210220FFF7D6FF10BDFFF7C5FF002803D103F0C5FC0028F6D002210320FFF7C9FFF1E7FFF7B8FF0028EDD003F0B8FC002806D005210420FFF7BCFF03F0CEFCE2E72B4B04221A7000210820FFF7B2FFF4E7FFF7A1FF0028DD
S38508006238D6D003F0C9FC05210520FFF7A7FFCFE7FFF796FF0028CBD003F0A0FC002806D005210620FFF79AFF03F0C0FCC0E71A4B01221A7000210820FFF790FFF4E7FFF77FFF0028B4D003F0BBFC05210720FFF785FFADE7FFF774FF0028A9D003F088FC002807D00C4B02221A7000210820FFF775FF9DE7084B03221A70F6E703F05CFC0B
S385080062B800210020FFF76AFF03F026FB90E7C046B0050020D8BD0008B1050020014B18787047C046B1050020BFF34F8F034B044ADA60BFF34F8FC046FDE7C04600ED00E00400FA0510B50A000100002003F07EF910BD000010B582B004000A2101A800F0ADFC00280ED0019A032A0ED82001001BC00000198100064B5B189533FF331A7099
S38508006338002000E0012002B010BD0120FBE7C046B8050020F0B5C64600B5040003011B1ADB001B189A00234B9B189333FF331B88013B9BB2132B02D904BC9046F0BD0025022D17D82201121BD20013199800194E801969004919CB00591A13199A008918A131FF31891904F01FFB002802D00135EDB2E5E7022D00D902252601361BF600E2
S385080063B833199800B630FF300A4B9846404433199F00A137FF3747446A005519EA00521B390004F076FA3419A1004144380004F005FBC1E7B805002010B584B0040000F00FFF074B0293002301930090054B064A0121200000F09DFC002004B010BDC04614BE000800BE000804BE000810B50749CC235B00064ACA50064B02221A70DF20C7
S385080064388000054C0C505A7010BDC046B8050020FD620008B40500203599000803011B1ADB0018188200034B9B189733FF3300221A707047B805002003011B1ADB0018188200034B9B189733FF3301221A707047B8050020014B19547047C046B4050020F0B585B007000E00019200240EE023011B1BDB001B199A001A4B9B189733FF3318
S385080064B81B78002B08D005E00134E4B2012C26D8FF2FECD0BC42F7D123011B1BDB001B199A00104B9B189933FF331D68019804F08DFA81B20198A847002EE5D003A80A4B1B88038023011B1BDB001B199A00054B9B189933FF331B6802219847D4E705B0F0BDC046B8050020FCBD000810B504000A000221FFF776FA002800D010BD034A11
S3850800653801212000FFF7ACFFF8E7C046FCBF000810B504000A000121FFF764FA002800D010BD034A01212000FFF79AFFF8E7C04608C0000870B504000D00FFF7D7FF29002000FFF7E5FF70BD10B5040003011B1ADB001B189A002A4B9B181A009332FF321288511E5B563F2B28D1023A03011B1ADB001B189900224B5B189B563D2B10D0E3
S385080065B803011B1ADB001B18980003301C4BC0181C4904F023FA020021001B4800F012FB1CE008000330164BC018164904F016FA02002100154800F005FB0FE003011B1ADB001B18980003300D4BC0180D4904F005FA020021000E4800F0F4FA002802D0012806D010BD0B4A01212000FFF738FFF8E7094A01212000FFF732FFF2E7C046F3
S38508006638B805002020BE0008D0BE0008F0BF000830BF0008ECBA0008F0BC000800B583B001AA1170002353700021FFF719FF03B000BD0000F0B5CE4600B582B0040001910600080004F0C2F90500421E9023FF339A4203D902B004BC9146F0BD0D212000FFF7DCFF002733019B1BDB009B199A00134B9B189333FF331B88BB4205D92021C6
S385080066B82000FFF7CBFF0137EDE70D212000FFF7C5FF27013F1BFF003B199E00084B99464E440199300004F089F933009333FF331D80320000212000FFF7D2FECAE7C046B8050020F8B5050017001E000B000B4A002100F01EFB0024B44208D23B5D084A0021280000F015FB0134E4B2F4E7054A01212800FFF7B4FEF8BDC04614C000083E
S3850800673818C0000868C6000870B504000D0003011B1ADB001B189A00C94B9B18E133FF331B78012B5AD0022B72D01B294FD003011B1ADB001B189A00C14B9B18E133FF3300221A7023011B1BDB001B199A00BC4B9B18E033FF3300221A700A2D67D000DCB9E00D2D00D1F5E07F2D00D0B6E023011B1BDB001B199A00B14B9B189633FF331C
S385080067B81B78002B53D1AE4B9B189333FF331B88002B4CD0AA492201121BD2001519A80008180025C5541219900009189331FF31013B0B8008212000FFF730FF20212000FFF72CFF08212000FFF728FF2FE09C4B9B18E133FF3301221A7028E05B290BD003011B1ADB001B189A00954B9B18E133FF3300221A70A5E703011B1ADB001C1870
S38508006838A2008F4B9B18E133FF3302221A700EE003011B1ADB001B189A00894B9B18E133FF3300221A70412902D0422929D070BD03011B1ADB001B189A00814B9B18E033FF331B78022BF2D85900CB18D900C91A05012D1AED002A189300C918A131FF31774E8919FFF7E6FE2A1993001A00F318E033FF331B78B618E036FF36013333707D
S385080068B8D5E703011B1ADB001B189A006C4B9B18E033FF3319780129C9D902394B005B18D900C91A05012D1AED002A189300C918A131FF31624E8919FFF7BCFE2A1993001A00F318E033FF331B78B618E036FF36013B3370ABE7082D00D148E723011B1BDB001B199A00564B9B189633FF331B78002B9CD12B00203BDBB25E2B97D8504B4B
S385080069389B189D33FF331968002900D12DE123011B1BDB001B199A00494B9B189333FF331A889023FF339A4200D980E7002900D12DE1434923011B1BDB00181982008A189332FF321088461C16801C19A300C9180D546CE723011B1BDB001B199A00384B9B189D33FF331A68002A21D023011B1BDB001B199900324BC918200090473049F5
S385080069B823011B1BDB00181982008A1810009330FF30002505809632FF32002010701C19A00040189222FF32002103F085FF3EE723011B1BDB001B199A00214B9B189633FF331B78002BDAD12000FFF7A3FC0D212000FFF723FE0A212000FFF71FFE23011B1BDB001B199A00154B9B189333FF331A88012A0AD923011B1BDB001B199900F5
S38508006A380F4BCB5620210B43612B21D0002AB6D023011B1BDB001B199800094BC018094903F0DCFF02002100074800F0CBF80028A5D0064A01212000FFF712FD9FE7C046B805002020BE000828BE0008F0BC000823011B1BDB001B1999004F4B5B185B785BB220210B43742BD0D1042A08D9F22252006243484B9B189B785BB22B2B20D07E
S38508006AB8F22252006243444B9B1802229A56202313436C2B2FD0722B37D0622B3FD0F222520062433C4B9B189533FF331B78022B47D0032B4FD0012B3BD02000FFF744FD5DE7F22252006243334B9B1803229A5620231343632BD3D1F222520062432E4B9B1804229A5620231343632BC8D12000FFF72AFD43E7F221490061430331264B16
S38508006B38C9182000FFF7F2FC39E7F221490061430331214BC9182000FFF7FAFC2FE7F2214900614303311C4BC9182000FFF702FD25E711000231184BC9182000FFF7D6FC1DE7F221490061430231134BC9182000FFF7DEFC13E7F2214900614302310E4BC9182000FFF7E6FC09E7532D00D0CEE6094B9B189333FF331B88002B00D0C6E618
S38508006BB8054B9B189633FF3301221A704FE629002000FFF743FDCCE6B805002010B541B20020FFF7B1FD10BD03011B1ADB0018188200034B9B189D33FF3319607047C046B8050020F0B583B007000C000192002601E00136F6B273009B199D007D19296800290DD0084B1A5D2B7A9A42F1D3019803F0C0FE0028ECD16B682000984700E0F7
S38508006C38012003B0F0BDC046B405002010B50249002003F0E3FE10BD20BE000870B504000D00FFF7F3FF021E04D029002000FFF7C9FF70BD004AF8E768C6000870B504000D00FFF7E3FF002806D02A00002103F09DFF2060012070BD0020FCE770B50500FFF7D4FF041E12D00B4903F083FE002803D100232B70013070BD0849200003F020
S38508006CB879FE002805D101232B700130F4E70020F2E70020F0E7C0467CB90008A0C00008F0B5D6464F464646C0B582B081468A469046FFF7ABFF061E1FD003F087FEC7B200240025BC4219D2325701AB1A703219527852B25A7000229A7045450BD210320021180003F052FF6B1C4A4650550234E4B2DDB2E6E7002500E0002553461D707F
S38508006D38681E8541E8B202B01CBC90469946A246F0BD0CB430B597B004000D001AAB04CB0193502102A804F0ABF8002804D117B030BC08BC02B0184702AA29002000FFF78FFBF4E71C4A116880235B020B431360194B1B689B03FBD5174A136817490B401360154B1B689B01FBD4134B5A6814490A405A605968A022D2020A435A601968CA
S38508006DB8802252040A431A600B4B1B689B01FBD5094B5A6803218A435A605A6801390A435A60054B5B681B07FBD5064A136801210B4313607047C04600100240FFFFFFFEFF7FC0FF00200240104A136801218B4313600F4A536802318B4353600C4B5B680C221A42FAD10A4A13680A490B401360074B1B689B01FBD4054A136806490B4036
S38508006E381360034B1B689B03FBD470470020024000100240FFFFFFFEFFFFFEFF10B5040000210120FCF7D4FBFCF784FD02F0E8FA02F08EFB01F064F9012C11D0FFF7C4FF0A4B0B4A1A6001F054F902F053FB02F09DFAFCF79DFD01210120FCF7B9FB10BDFFF770FF014B034A1A60ECE7002C002000127A00006CDC02104B1A6801210A43ED
S38508006EB81A605A680E4802405A601A680D4802401A60DA6A0F208243DA621A6B0A4802401A635A6B8A435A6300229A60074B10321A601A688A431A607047C046001002400C38C000FFFFF2FEACFEFFFF00200240014B024A1A607047002C002000127A0010B5FFF7C9FFFFF7F3FF10BD30B589B0174CE01D172100F06BFAA07100F0E6FE0B
S38508006F38144B186800F0E6FE051E04D100F0DAFE280009B030BD2022FF21684603F0CCFC1E220B49684603F0ABFC00241D2CEDD8A3089B006A469958064B1868201800F06BFE002801D00434F0E70500DEE7C04680090020042C002010B5054A518B938B1B040B43034A0021FFF7D3FE10BDC046800900207CBB000810B5034B1B8B034A26
S38508006FB80021FFF7C6FE10BD800900207CBB000810B5054AD17C53691B020B43034A0021FFF7B7FE10BDC046800900207CBB000810B5054AD17B13691B020B43034A0021FFF7A7FE10BDC046800900207CBB000810B582B00749CB798A6812021A43CC7ACB681B0223430092034A0021FFF791FE02B010BD8009002024C10008F8B506001D
S385080070380F0000240CE0184A00213000FFF781FE10E0164A01213000FFF722FA0134E4B2250063001B199A00114BD358002B19D0002FE8D16B005B199A000D4B9B189B6830009847002FE4D101356B005D19AB00074A9B58002BDCD0064A00213000FFF7FFF9DBE70020F8BD18C1000868C6000830C1000820C1000870B582B00E0014003C
S385080070B81D000A22002103F0C3FE030000228A4219DC01D1844216D80022914201DD012012E0914201D1AB42F9D80190042201A9300003F0E5FBFFF719FF002801D1013002E0002000E0012002B070BD10B50800012303495B4200221A31FFF7CDFF10BD8009002010B50800012303495B4201221331FFF7C1FF10BD8009002010B508003F
S38508007138012303495B4201220F31FFF7B5FF10BD8009002010B508001022002103F078FE0B4AD31DD071020A5A70020C9A70000ED87019710A0A5A710A0C9A71090ED971FFF7D4FE002801D1013010BD0020FCE78009002010B5081E0BD00A22002103F015FD064B1883FFF7C1FE002803D1013000E0012010BD0020FCE7C0468009002029
S385080071B8044BDA79996808021043DA7AD96809021143704780090020024BDA7B186900021043704780090020024BDA7C586900021043704780090020014BD87D7047C0468009002010B5024BD875FFF78FFE10BD80090020014B188B7047C04680090020024B5A8B988B0004104370478009002070B52F4E2F4B33602F4C1E22FF2120009A
S3850800723803F05AFB2D4D25601723A380E01D17222B4903F035FB34682378627812021A43A3781B041A43E3781B061343AB4224D0E279237A1B021343627A12041343A27A12061A43E37A217B09021943637B1B041943A37B1B060B431748C11DC271100A4870100C8870120ECA700B711A0A4A711A0C8A711B0ECB7170BDA679E51D217988
S385080072B8280000F0A5F88642F6D12379627912021A43172A06D9084817222900073003F0EFFAE9E704482900073003F0E9FAE3E7042C00200008000880090020E2AC6FD078C10008F0B583B00190FFF79FFC061E31D00024012710E06B005D19AA001B4B9B189B68019D28009847194A01212800FFF7B6F800270134E4B2250063001B195E
S385080073389A00124BD15800291CD0300003F032FB0028F0D1FFF77AFC0028DDD06B005D19AA000A4B9B185B68010001989847431E9841C7B2DFE701210198FFF75FFE431E9841C7B2380003B0F0BDC04630C1000868C6000810B5FFF7B5FF10BD10B50021FFF74CFE10BD10B5002302E0400801339BB28CB29C4204D9C407F7D54008504018
S385080073B8F5E710BDF0B5C64600B506000D0090461F000024FF23AAB2A2420AD9305D584080B2D9220821FFF7DEFF03000134A4B2F1E74246002A07D1705D584080B2D9320821FFF7D0FF03003B7004BC9046F0BD10B582B06B46DC1D23000122FFF7D2FF207802B010BD000010B50E4B1B88834201D8C01A00E000200B4B198802F06CFFB6
S385080074380400FFF7EDFE094B984201D0200010BDE000001940000019142102F05DFF0400F4E7C046CC010020CE010020B9E2330110B50120FCF74CFB312801D8002010BD0020FCF745FB312801D90120F7E70020F5E7000010B572B6044B1A78104318702C2000F01CFE62B610BDC0469E09002010B5FFF7B5FE074B984203D00820FFF794
S385080074B8E9FF10BD044B5F221A80044B553A1A80F4E7C046B9E23301CC010020CE01002010B572B6054A13788343137001D062B610BD2C2000F0FDFDF9E7C0469E09002010B50120FCF7FEFA10BD10B50020FCF7F9FA10BDF8B507000D000A4C21000120FCF73CFB060021000020FCF737FB04003000FFF779FF38602000FFF775FF286009
S38508007538F8BDC046E40C000000B583B0694601A8FFF7E0FF019B009A94466344180003B000BD000070B582B005000120FFF792FFC82001F0A7FFFCF759FA0B4C21000120FCF70CFB060021000020FCF707FB00903300064A01212800FFF7DBFB0120FFF79FFF002002B070BDE40C0000E4BA000810B582B004000A2101A8FFF75FFB002874
S385080075B80ED0019B002B0ED02000FEF755FF00210B4801F0BFFAFDF7B1F9082001F054FC002002B010BD2000FEF738FF0121044801F0B0FAFDF7A8F9082001F057FCEFE7F0C00008124A134B9A4212D9124B00221A70124B124A1A60124B134A1A60134B1A68134B1A600D4B1B681C33114A13607047094B01221A70084B064A1A60094BE7
S385080076380D4A1A600D4B1A68094B1A60EBE7C046FD75000800080108C8090020B809002000100008B4090020FF0701081C080108A8090020AC090020FFFF01081C10000830B585B004000D000922002101A803F033F92A00210001A803F012F91022002101A803F021FB05B030BD0000F8B5060003F0ACF905001D4B1B781B0705D51C4A79
S385080076B81378591C11705B072AD0C8235B009D4228DC052D28DD174B00221A7000270024AC420FDA30190221FFF7CAFF114A1378C0B21149C854C719FFB2013313700234A4B2EDE7FF2F01D00C480CE00A4B1B786D10013DAB4201D0094804E0002002E0084800E00848F8BD0848FCE7C0090020E1090020AC0A0020E4090020F8C200085F
S38508007738B0C20008C4C20008D4C20008E4C2000870B506000D00124B1C7800212000FFF743FA8020400001F0A1FBFDF713FA00F0C9FA0C4B00221A7033000B4A01212000FFF7E7FA002D09D0084A00212000FEF787FE2A0001212000FEF782FE70BDC046A4090020E0090020D8C10008E8C1000870B505000C004D4B1A684D4B1A60002339
S385080077B8CB56532B00D070BD881CFFF76FFF00280DD0484B1B78DB0705D5474A01212800FFF7B7FAEFE72100FFF7B2FFEBE7414B1B78DB0728D40123E356332B2FD0372B70D0302BDFD13D4B1A78043AD2B2102A00D910223A4E3B49300003F051F80023F373344B1B78DB0606D435483649083003F0DAF800280DD1314B0833334A01211E
S385080078382800FFF786FABEE7314A01212800FEF727FED0E721002F48FFF77AFFB3E72E4B5D782D069A781204AD18DA781202AD181B79ED18294B1B68AB42A4D8284B1B68AB42A0D31B4B1B789B079CD4052609E0280000F0E1F900281FD00435214B1D600436F6B2154B1B78013B9E4200DB8AE7194B995D721C9A5C12028918B21C9A5C82
S385080078B812048918F21C9B5C1B06C918164B1B68AB42DDD1154B1960DFE721001448FFF737FF70E7134B03221A706CE7740C0020A0090020C009002068C20008AC0A0020CC090020E709002000BE000880C2000874C2000890C20008E4090020B8090020B4090020BC090020AC090020B0090020A0C20008E009002030B583B00500234BA3
S385080079381B78002B3CD1102101A8FFF797F900281ED01F4B019A1A708020400001F094FA1C492800FFF740F900F0D0F9184B1B789B0711D4184B1C68184B1B68A3420BD9200000F0C7F980231B019C466444F3E70F4B00221A70DFE7114A01212800FEF77FFD0A4B01221A700E4B1A680E4B1A600E4B1D700E4B00221A60002003B030BDEA
S385080079B80C4A0121FEF76CFDF7E7C046E0090020C0090020A9770008B8090020B4090020C0C10008740C0020DC090020A4090020B0090020CCC1000870B582B05C4B1C785C4B1A78052A00D993E093005A4AD3589F46FDF7A9F8002808D1584B1B68584A12689B1AFA229200934277D9554B1B78002B0DD04123544A01212000FFF789F962
S38508007A384C4B02221A704D4B1A68504B1A6065E04223F0E74B4B1B78002B0DD04C4B5D6801214020FBF7AAFD4A4A936801210B439360494B1B6806E0454B1D68F0E7454A196811600433454A12689A4208D9444A12689A42F3D1434A11683E4A1160F1E73C4B1E6800214020FBF788FD009533003D4A01212000FFF74CF9B54203D12D4B37
S38508007AB804221A702AE000213848FFF741FE25E0334B1868364B19688B1C11D0013100F0BBF800280ED0334A01212000FEF7D8FC224B1A68304B1A601E4B05221A700DE00021ECE700212D48FFF722FE06E01B4B1B68294A12689B1A642B01D802B070BDBFF34F8F264B274ADA60BFF34F8FC046FDE7254B1B785B07F0D4104B1B68104AF6
S38508007B3812689B1A214A93420DD80C4B1B680F4A12689B1AFA2292009342DFD900211C48FFF7F6FDDAE700211A48FFF7F1FDD5E7A4090020E0090020A8C10008740C0020DC090020C8090020F0C10008A0090020CC09002000300240B8090020BC090020AC090020B009002000C20008B8C80008A809002028C20008C409002038C200083E
S38508007BB800ED00E00400FA05C00900203075000054C200084CC20008024BDB68DB07FBD47047C0460020024070B50400124D2B68124A0121FFF7ADF8EB68114A01212000FFF7A7F82B690F4A01212000FFF7A1F86B690D4A01212000FFF79BF8EB690B4A01212000FFF795F82B6A094A01212000FFF78FF8002070BD0020024014C300083D
S38508007C3824C3000834C3000844C3000854C3000864C3000870470000F8B506000D00FFF7BBFF0B4C236901273B432361ABB23380FFF7B2FF2B0C7380FFF7AEFF2369BB4323613068401B43425841C0B2F8BDC0460020024030B585B00500102103A8FEF7EDFF00280AD10023134A0092134A01212800FFF74EF8002005B030BDFBF732FB58
S38508007CB80024102102A8FEF7D9FF00280BD002990398FFF7C1FF002805D0039B023303930134E4B2EDE7FBF72DFB2300012C01D0014ADAE7024AD8E708BD000874C3000868C6000810B5FBF71DFB10BD10B5FBF709FB10BD70B50600FFF75EFF084C236902252B43236166612369402213432361FFF752FF2369AB432361012070BDC04627
S38508007D380020024010B582B004000A2101A8FEF795FF002803D10124200002B010BDFBF7E1FA019BD80280231B059C466044FFF7D1FF002803D10124FBF7E4FAECE7034A01212000FEF78CFB0024F5E70CC3000810B501000148FEF761FF10BD88C30008F0231840103880019023DB059C46604470470F2303400120984080B270470F213C
S38508007DB8014001228A40F0230340103B9B019021C9058C4663441204120C9A6170470F21014001228A40F0230340103B9B019021C9058C46634492B21A85704710B503684C00E3401C0003232340012B15D0002B06D0022B1ED0032B22D00023137010BD69231370038A9BB20B41DB0703D5312353700232F1E73023FAE76F231370838A5B
S38508007E389BB20B41DB0703D5312353700232E4E73023FAE761231370053353700232DCE7612313700D3353700232D6E770B505000C00FFF79EFF20602800FFF791FF2100FBF768FA70BD70B5FEF7E0FE051E1ED002F0BCFD01281CD900242C5720239C432300413BDBB2022B01D9002010E0681C0A22002102F08AFE0F280CDC2300403BAC
S38508007EB89BB21B019BB280B2181880B200E0002070BD0020FCE70020FAE770B5FFF7D3FF0400FFF75DFF05002000FFF762FF002C05D02B8D03439BB22B85002000E0012070BD70B5FFF7BFFF0400FFF749FF05002000FFF74EFF002C04D0AB691843A861002000E0012070BD30B583B00500FFF7AAFF041E02D1012003B030BDFFF730FFD8
S38508007F380F21214001AAFFF759FF01AA01212800FEF7A6FA0020EFE7F0B585B00190184A0121FEF79DFA002605E0164A01210198FEF796FA0136022E1FD8B5029023DB059C466544330041330F4A00210198FEF7E0FE00240F2CE8D803AF20233B7002AB5A1D21002800FFF729FF3A0000210198FEF7CFFE0134E4B2ECE7002005B0F0BDAB
S38508007FB8C0C3000868C60008F8C3000810B582B004006846FBF74EFA69462000FFF746FF02B010BD10B5FFF74EFF002801D1012010BDFFF7EBFF0020FAE710B582B004006846FBF737FA02236A46D37169462000FFF72CFF02B010BD10B5FFF734FF002801D1012010BDFFF7E8FF0020FAE710B582B004006846FBF71DFA01236A46137168
S3850800803869462000FFF712FF02B010BD10B5FFF71AFF002801D1012010BDFFF7E8FF0020FAE730B583B004000D006846FBF702FA02236A46137169462000FFF7F7FE2000FFF78EFE0F2121402A00FBF7FFF903B030BD00B583B00A2101A8FEF7EFFD002802D1012003B000BDFFF7EDFE002801D10120F7E7019BD9B2FFF7D3FF0020F1E722
S385080080B810B582B004006846FBF7D4F903236A46137169462000FFF7C9FE02B010BD10B503B2002B02DBFFF76AFE10BDFFF777FEFBE710B503B2002B02DBFFF770FE10BDFFF75DFEFBE770B50400FFF749FE058AADB22000FFF74DFE05402800421E9041C0B224B2002C00DB70BD6B426B41D8B2FAE710B5E02001210003FBF73FFA10BD18
S3850800813810B5E02000210003FBF738FA10BD000001235B429022D2051360044A1360044A1360044A1360044A136070470004004800080048000C0048001000489023DB05064A1A60064B074A1A6001235B42064A1360064A1360064A13607047FC7FFFFF00040048FFFFF7FF00080048000C00480010004810B5FFF7BCFF1020FFF71DFF78
S385080081B800212620FFF74DFF00212720FFF749FF2C20FFF784FF2C20FFF729FF1320FFF76FFF1120FFF76CFF1420FFF769FF1220FFF77FFF1220FFF71AFF1D4C2000FFF778FF2000FFF713FF1A4C2000FFF771FF2000FFF70CFF184C2000FFF76AFF2000FFF705FF2A20FFF764FF2A20FFF7FFFE2B20FFF7CBFE2920FFF75BFF2920FFF72F
S38508008238F6FE3D20FFF7C2FE2120FFF7F0FE2020FFF7EDFE0948FFF7EAFE0948FFF7B6FE1620FFF72DFF1820FFF7E1FE10BDC046238000002480000025800000158000002280000010B5FFF795FF1720FFF731FF1720FFF7CCFE10BD10B501000148FEF7DDFC10BD00C4000810B5FFF7F5FF10BD30B583B0C5B201A805704170012484700D
S385080082B8FBF740F91F200540AC40024B1C6003B030BDC04600E100E010B501210120FBF797F900210020FBF7E7F90D210220FBF7E3F900211F20FFF7DBFF01210C20FFF7D7FF01210520FFF7D3FF01210720FFF7CFFF02211020FFF7CBFF03211B20FFF7C7FF03211620FFF7C3FF03210220FFF7BFFF094B1968094A11431960596808480C
S3850800833801405960996811439960D9681143D96059690A435A6110BD0004014001200000FEDFFFFF10B505494A69032313404B61D30700D410BDFCF7EDFAFBE70004014010B505494A69054B13404B61930400D410BDFCF7DFFAFBE700040140F0FF000010B501F005FD054A01210020FEF778F8002000F049FB01F07FF9FCE784C4000895
S385080083B870B50400154B1B68002B20D083421BD0134B1D78681C03221040124A1378834212D0834208D09A000F495258A2420CD0013303221340F4E70023002B04D1AD00094AAC50064B187070BD0123F5E78020400100F039FD014B1C60F5E7C00A0020C70A0020C80A0020B00A00207047000070B505000D4B1B78834215D0002403E072
S38508008438FFF757FE0134E4B2022C0BD86300084A985A0028F6D02B002341DB07F0D5FFF73EFEEFE7014B1D7070BDC046AD0A00209CC4000800B583B00A2101A8FEF7FEFB002802D0019807280BDD094B01221A70084B00221A600020FFF7CAFF002003B000BD034B00221A70C0B2FFF7C1FFF5E7D0010020CC0A002010B50020FFF7B8FF47
S385080084B810BD00000023054A1370054A1360054A1360054A1370054A13707047AE0A0020CC0A0020C00A0020C70A0020C80A002010B50A4B1B78002B06D05E2805D81D2807D90748FFF75CFF10BD0648FFF758FFFAE70548FFF754FFF6E7C046D0010020CCC40008BCC40008C4C4000870B5414B1B78002B2ED0404B1C68404A13780133FC
S3850800853813703F4A138801331380002C23D03D4B1B68A3420CD03B4B1C600023374A1370374A13800022384B1A70E078FFF760FF344B1C68002C0DD02288314B1B889A4228D9314B18784300E3181A792B4B1B789A423ED970BDFDF79FFA0028D7D0FCF7F7FF002801D0294CD1E7FBF745FD0500FDF798FA002805D05E2D07D81D2D07D9D0
